S0170000323032345F6176726F735F766572302E73726563DF
S113000071C0000081C000007FC000007DC00000FE
S11300107BC0000079C0000077C0000075C00000FC
S113002073C0000071C000006FC000006DC000000C
S11300306BC0000069C0000067C0000065C000001C
S113004063C0000043C100005FC000005DC0000049
S11300505BC0000059C0000057C0000055C000003C
S113006053C0000051C000004FC000004DC000004C
S11300704BC0000049C0000047C0000045C000005C
S113008043C0000041C000003FC000003DC000006C
S11300903BC0000039C0000037C0000035C000007C
S11300A033C0000031C000002FC000002DC000008C
S11300B02BC0000029C0000027C0000025C000009C
S11300C023C0000021C000001FC000001DC00000AC
S11300D01BC0000019C0000017C0000015C00000BC
S11300E013C0000011241FBECFEFD1E2DEBFCDBF8D
S11300F000E00CBF28E0A0E0B2E001C01D92A231F4
S1130100B207E1F7E5D04AC27BCF019771F0000056
S113011000000000000000000000000000000000DB
S1130120000019F0AA27019791F70895F894019710
S1130130E1F30000000000000000000000000000E7
S113014000000000000019F0AA27019791F77894A5
S113015008950091000214E0019FE2E0F8E0E00D50
S1130160F11D1124019110810DBF1EBFFF91EF916C
S1130170DF91CF91BF91AF919F918F917F916F91BB
S11301805F914F913F912F911F910F91FF90EF90AD
S1130190DF90CF90BF90AF909F908F907F906F90A3
S11301A05F904F903F902F901F900F900FBE0F9035
S11301B07894089500C0F8940F920FB60F921F928E
S11301C02F923F924F925F926F927F928F929F9263
S11301D0AF92BF92CF92DF92EF92FF920F931F9351
S11301E02F933F934F935F936F937F938F939F933B
S11301F0AF93BF93CF93DF93EF93FF9300910002EC
S113020018E0019F2DB73EB7E2E0F8E0E00DF11DE4
S11302102193319311D10091000218E0019FE2E093
S1130220F8E0E00DF11D1124019110810DBF1EBFF6
S1130230FF91EF91DF91CF91BF91AF919F918F91FA
S11302407F916F915F914F913F912F911F910F91EA
S1130250FF90EF90DF90CF90BF90AF909F908F90E2
S11302607F906F905F904F903F902F901F900F90D2
S11302700FBE0F9078940895CF93DF93CDB7DEB778
S113028081E890E021E830E0F90120812860FC0158
S1130290208388E890E020E13AE7FC013183208361
S11302A081E890E021E830E0F90120812460FC013C
S11302B020838FE690E02FE630E0F9012081226070
S11302C0FC0120830000DF91CF91089573CF0000DB
S11302D0CF93DF93CDB7DEB7CFDF84E290E024E2A3
S11302E030E0F90120812068FC01208381E290E064
S11302F021E230E0F90120812260FC01208385E2C3
S113030090E0FC01808185E290E02FEFFC012083E6
S113031082E290E0FC01808182E290E02FEFFC0118
S1130320208320E030E046E752E062E072E082E0C1
S113033098E00BD021E030E04BEA52E062E076E056
S11303408AE098E002D005DFFFCFCF93DF93CDB7EB
S1130350DEB72A970FB6F894DEBF0FBECDBF9C83DD
S11303608B837E836D8358874F833A8729878D815A
S11303709E8181509E4F9A8389838D819E8140E026
S113038052E063E870E003D189819A81FC01108214
S113039089819A810197FC01108289819A8102974F
S11303A0FC01108289819A8103979A8389838F81C2
S11303B09885282F89819A81FC01208389819A81DB
S11303C001972F813885232F3327FC0120838981CE
S11303D09A810297FC01108289819A8103979A83FA
S11303E0898389819A81819741E250E060E070E0DD
S11303F0CED089819A819C01215231098B819C81C3
S1130400FC01318320838B819C8121E0FC012583C5
S113041029858B819C81FC0124838B819C81FC0137
S11304201782168200002A960FB6F894DEBF0FBE1C
S1130430CDBFDF91CF910895CF93DF93CDB7DEB7D2
S1130440809100029091010221E0181619060CF423
S113045020E0822F90E0909301028093000200003C
S1130460DF91CF910895CF93DF931F921F92CDB761
S1130470DEB79A83898389819A81880F991F880FAF
S1130480991F880F991F8E5F974F0F900F90DF91E0
S1130490CF910895CF93DF9300D01F92CDB7DEB7ED
S11304A09C838B83F8948091000290910102DBDF9E
S11304B09A83898389819A8123E0FC0125832B8196
S11304C03C8189819A81FC013783268384E890E00A
S11304D029EB39E0FC0131832083789400000F90EC
S11304E00F900F900F90DF91CF910895CF93DF93EA
S11304F01F921F92CDB7DEB781E090E09A83898383
S113050085E290E0FC01808185E290E02FEFFC0120
S1130510208389819A81F9DD85E290E0FC01808164
S113052085E290E0FC01108228EE33E089819A8113
S1130530A901481B590BCA01E8DD89819A81853ECE
S1130540934024F489819A81029602C081E090E06C
S11305509A838983D5CFCF93DF93CDB7DEB781E07C
S113056090E098DF85E290E0FC01808185E290E0F4
S1130570FC01108281E090E08DDF85E290E0FC01D7
S1130580808185E290E02FEFFC012083E8CFDC013D
S113059001C06D9341505040E0F70895F894FFCFA7
S9030000FC
