S0170000323032345F6176726F735F766572302E73726563DF
S113000071C0000081C000007FC000007DC00000FE
S11300107BC0000079C0000077C0000075C00000FC
S113002073C0000071C000006FC000006DC000000C
S11300306BC0000069C0000067C0000065C000001C
S113004063C000002AC100005FC000005DC0000062
S11300505BC0000059C0000057C0000055C000003C
S113006053C0000051C000004FC000004DC000004C
S11300704BC0000049C0000047C0000045C000005C
S113008043C0000041C000003FC000003DC000006C
S11300903BC0000039C0000037C0000035C000007C
S11300A033C0000031C000002FC000002DC000008C
S11300B02BC0000029C0000027C0000025C000009C
S11300C023C0000021C000001FC000001DC00000AC
S11300D01BC0000019C0000017C0000015C00000BC
S11300E013C0000011241FBECFEFD1E2DEBFCDBF8D
S11300F000E00CBF28E0A0E0B2E001C01D92AC30EB
S1130100B207E1F7E7D032C47BCF0091020214E0DA
S1130110019FE4E0F8E0E00DF11D1124019110814C
S11301200DBF1EBFFF91EF91DF91CF91BF91AF91B2
S11301309F918F917F916F915F914F913F912F91FB
S11301401F910F91FF90EF90DF90CF90BF90AF90F1
S11301509F908F907F906F905F904F903F902F90E3
S11301601F900F900FBE0F907894089500C0F894DC
S11301700F920FB60F921F922F923F924F925F925F
S11301806F927F928F929F92AF92BF92CF92DF92A3
S1130190EF92FF920F931F932F933F934F935F938D
S11301A06F937F938F939F93AF93BF93CF93DF937B
S11301B0EF93FF930091020214E0019F2DB73EB725
S11301C0E4E0F8E0E00DF11D2193319331D000918A
S11301D0020214E0019FE4E0F8E0E00DF11D1124B7
S11301E0019110810DBF1EBFFF91EF91DF91CF915F
S11301F0BF91AF919F918F917F916F915F914F913B
S11302003F912F911F910F91FF90EF90DF90CF902E
S1130210BF90AF909F908F907F906F905F904F9022
S11302203F902F901F900F900FBE0F9078940895D9
S1130230009102020395023010F000270895009304
S113024002020895CF93DF93CDB7DEB781E890E043
S113025021E830E0F90120812860FC01208388E84E
S113026090E02AE136E0FC013183208381E890E0CC
S113027021E830E0F90120812460FC0120838FE62D
S113028090E02FE630E0F90120812260FC01208318
S113029078940000DF91CF91089568CF0000CF9348
S11302A0DF93CDB7DEB785E290E0FC01808185E283
S11302B090E02FEFFC012083F6CFCF93DF93CDB7EF
S11302C0DEB785E290E0FC01808185E290E0FC01EC
S11302D01082F7CFCF93DF93CDB7DEB7B3DF84E2DD
S11302E090E024E230E0F90120812068FC012083C1
S11302F081E290E021E230E0F90120812260FC01FA
S1130300208385E290E0FC01808185E290E02FEF7C
S1130310FC01208382E290E0FC01808182E290E093
S11303202FEFFC0120834FE451E064E072E084E0AD
S113033098E009D04DE551E064E076E088E098E08B
S113034002D0E3DEFFCFCF93DF93CDB7DEB728979C
S11303500FB6F894DEBF0FBECDBF9C838B837E8324
S11303606D8358874F838D819E8181509E4F9A83E0
S1130370898389819A81FC01108289819A810197FC
S1130380FC01108289819A8103979A8389838F81E2
S11303909885282F89819A81FC01208389819A81FB
S11303A001972F813885232F3327FC0120838981EE
S11303B09A8103979A83898389819A81819741E2FB
S11303C050E060E070E0CBD289819A819C01215297
S11303D031098B819C81FC013183208300002896A4
S11303E00FB6F894DEBF0FBECDBFDF91CF91089555
S11303F0CF93DF93CDB7DEB70000DF91CF9108959F
S1130400CF93DF931F921F92CDB7DEB79A83898370
S113041089819A81880F991F880F991F8C5F974F44
S11304200F900F90DF91CF910895CF93DF9300D079
S11304301F92CDB7DEB79C838B83F8948091020220
S113044090910302DDDF9A83898389819A8123E075
S1130450FC0125832B813C8189819A81FC013783AE
S1130460268384E890E029EB39E0FC013183208382
S1130470789400000F900F900F900F90DF91CF9120
S11304800895CF93DF93CDB7DEB7A4970FB6F89452
S1130490DEBF0FBECDBF69A37AA38BA39CA3F89440
S11304A089A19AA1ABA1BCA189839A83AB83BC83A4
S11304B02BEA3AEA4AEA50E469817A818B819C8189
S11304C0EBD1DC01CB018D839E83AF83B88720E021
S11304D030E040E850E469817A818B819C81DCD1F1
S11304E0DC01CB0189879A87AB87BC8720E030E0A9
S11304F040E85FE36D817E818F819885BCD088233D
S11305001CF481E08D87A7C020E03FEF4FE757E45C
S113051069857A858B859C85BBD118160CF074C0CF
S113052020E030E04AE754E469817A818B819C8140
S1130530A6D0DC01CB018E879F87A88BB98B20E0E6
S113054030E04AE755E46E857F8588899989A4D18E
S1130550DC01CB018A8B9B8BAC8BBD8B20E030E024
S113056040E85FE36A897B898C899D8984D08823EC
S11305702CF481E090E09F8B8E8B3BC020E03FEF1A
S11305804FE757E46A897B898C899D8981D1181644
S11305903CF520E030E040E251E46E857F858889B7
S11305A099897AD1DC01CB01BC01CD01D0D0DC0129
S11305B0CB019F8B8E8B0FC080E991E0998F888F40
S11305C0888D998D0197F1F7998F888F8E899F89EE
S11305D001979F8B8E8B8E899F89892B69F73BC0EE
S11305E06A897B898C899D89B2D0DC01CB019F8B80
S11305F08E8B8E899F899B8F8A8F8A8D9B8D019785
S1130600F1F79B8F8A8F27C020E030E04FE753E457
S11306106D817E818F8198853BD11816A4F46985FC
S11306207A858B859C8593D0DC01CB019D8F8C8F43
S11306308C8D9D8D9F8F8E8F8E8D9F8D0197F1F761
S11306409F8F8E8F0FC06D817E818F8198857FD023
S1130650DC01CB018D878D8588A388A18A95F1F76C
S113066088A30000A4960FB6F894DEBF0FBECDBFDA
S1130670DF91CF91089597D008F481E008950CD0CC
S1130680CDC0C5D040F0BCD030F021F45F3F19F0AC
S1130690AEC05111F7C0B1C0D2D098F39923C9F3B9
S11306A05523B1F3951B550BBB27AA276217730774
S11306B0840738F09F5F5F4F220F331F441FAA1F28
S11306C0A9F333D00E2E3AF0E0E830D091505040E8
S11306D0E695001CCAF729D0FE2F27D0660F771F96
S11306E0881FBB1F261737074807AB07B0E809F078
S11306F0BB0B802DBF01FF2793585F4F2AF09E3F0D
S1130700510568F074C0BEC05F3FECF3983EDCF363
S1130710869577956795B795F7959F5FC9F7880F85
S1130720911D9695879597F90895E1E0660F771FD7
S1130730881FBB1F621773078407BA0720F0621B68
S1130740730B840BBA0BEE1F88F7E09508957FD0E6
S113075088F09F5790F0B92F9927B751A0F0D1F0A6
S1130760660F771F881F991F1AF0BA95C9F712C030
S1130770B13081F086D0B1E0089583C0672F782F1F
S11307808827B85F39F0B93FCCF38695779567959C
S1130790B395D9F73EF490958095709561957F4F08
S11307A08F4F9F4F0895990F0008550FAA0BE0E84B
S11307B0FEEF16161706E807F907C0F0121613061F
S11307C0E407F50798F0621B730B840B950B39F45F
S11307D00A2661F0232B242B252B21F408950A26C5
S11307E009F4A140A6958FEF811D811D089597F905
S11307F09F6780E870E060E008959FEF80EC0895C3
S113080000240A94161617061806090608950024EB
S11308100A9412161306140605060895092E039465
S1130820000C11F4882352F0BB0F40F4BF2B11F4D9
S113083060FF04C06F5F7F4F8F4F9F4F089557FD38
S11308409058440F551F59F05F3F71F04795880F3A
S113085097FB991F61F09F3F79F0879508951216D1
S113086013061406551FF2CF4695F1DF08C016167D
S113087017061806991FF1CF86957105610508942E
S11308800895E894BB2766277727CB0197F9089545
S11308908ADF08F48FEF08950BD0C0CFB1DF28F0C2
S11308A0B6DF18F0952309F0A2CFA7CF1124EACF21
S11308B0C6DFA0F3959FD1F3950F50E0551F629FBB
S11308C0F001729FBB27F00DB11D639FAA27F00DA5
S11308D0B11DAA1F649F6627B00DA11D661F829FCC
S11308E02227B00DA11D621F739FB00DA11D621FB1
S11308F0839FA00D611D221F749F3327A00D611DCE
S1130900231F849F600D211D822F762F6A2F1124AF
S11309109F5750408AF0E1F088234AF0EE0FFF1F02
S1130920BB1F661F771F881F91505040A9F79E3F39
S1130930510570F05CCFA6CF5F3FECF3983EDCF33B
S1130940869577956795B795F795E7959F5FC1F776
S1130950FE2B880F911D9695879597F90895DC01D4
S113096001C06D9341505040E0F70895F894FFCFD3
S9030000FC
